:020000040800F2
:10000000005000204D05000897010008A3010008DA
:10001000A9010008AF010008B501000800000000B8
:10002000000000000000000000000000BB0100080C
:10003000C701000800000000D3010008DF0100082C
:100040009905000899050008990500089905000818
:100050009905000899050008990500089905000808
:1000600099050008990500089905000899050008F8
:1000700099050008990500089905000899050008E8
:1000800099050008990500089905000899050008D8
:1000900099050008990500089905000899050008C8
:1000A00099050008990500089905000899050008B8
:1000B00099050008990500089905000899050008A8
:1000C0009905000899050008990500089905000898
:1000D0009905000899050008990500089905000888
:0C00E00099050008990500089905000822
:1000EC0080B582B000AF0121042000F00BFA102380
:1000FC00FB712023BB800323BB713B1D19460348B6
:10010C0000F028F900BF0837BD4680BD000801404B
:10011C0080B485B000AF0346FB800023FB600DE08C
:10012C000023BB6002E0BB680133BB60BB6842F6D6
:10013C00FE229342F7DDFB680133FB60FB88FA6813
:10014C009A42EDDB00BF00BF1437BD4680BC704740
:10015C0080B500AF2021084800F0B8F94FF4FA70D0
:10016C00FFF7D6FF2021044800F0BEF94FF4FA70D7
:10017C00FFF7CEFF00BF80BD0008014080B500AF87
:10018C00FFF7AEFFFFF7E4FFFCE780B400AF00BF62
:10019C00BD4680BC704780B400AFFEE780B400AFB2
:1001AC00FEE780B400AFFEE780B400AFFEE780B49A
:1001BC0000AF00BFBD4680BC704780B400AF00BF2D
:1001CC00BD4680BC704780B400AF00BFBD4680BC4C
:1001DC00704780B400AF00BFBD4680BC70470000C4
:1001EC0080B500AF154B1B68144A43F00103136034
:1001FC00124B5A681149124B13404B600F4B1B6842
:10020C000E4A23F0847323F4803313600B4B1B686A
:10021C000A4A23F480231360084B5B68074A23F4D3
:10022C00FE035360054B4FF41F029A6000F00CF86C
:10023C00044B4FF000629A6000BF80BD001002407A
:10024C000000FFF800ED00E080B500AF00F002F810
:10025C0000BF80BD80B483B000AF00237B6000235F
:10026C003B603A4B1B68394A43F480331360374B7D
:10027C001B6803F400333B607B6801337B603B6895
:10028C00002B03D17B68B3F5A06FF0D12F4B1B680B
:10029C0003F40033002B02D001233B6001E0002368
:1002AC003B603B68012B4BD1294B1B68284A43F020
:1002BC0010031360264B1B68254A23F003031360BD
:1002CC00234B1B68224A43F0020313601F4B1F4A47
:1002DC005B6853601D4B1D4A5B6853601B4B5B682E
:1002EC001A4A43F480635360184B5B68174A23F433
:1002FC007C135360154B5B68144A43F4E81353604A
:10030C00124B1B68114A43F08073136000BF0F4BF4
:10031C001B6803F00073002BF9D00C4B5B680B4A85
:10032C0023F003035360094B5B68084A43F0020354
:10033C00536000BF054B5B6803F00C03082BF9D12D
:10034C0000BF0C37BD4680BC704700BF0010024098
:10035C000020024080B489B000AF7860396000237F
:10036C00FB6100233B610023BB610023FB60002386
:10037C007B610023BB603B68DB7803F00F03FB6100
:10038C003B68DB7803F01003002B05D03B689B78AF
:10039C001A46FB691343FB613B681B88DBB2002BDD
:1003AC0044D07B681B687B610023BB6138E0012271
:1003BC00BB6902FA03F3FB603B681B881A46FB68B7
:1003CC0013403B613A69FB689A4226D1BB699B009A
:1003DC00FB600F22FB6802FA03F3BB60BB68DB43D4
:1003EC007A6913407B61FA69FB6802FA03F37A6954
:1003FC0013437B613B68DB78282B05D10122BB6959
:10040C009A407B685A6108E03B68DB78482B04D142
:10041C000122BB699A407B681A61BB690133BB61DD
:10042C00BB69072BC3D97B687A691A603B681B8848
:10043C00FF2B46D97B685B687B610023BB613AE08C
:10044C00BB690833012202FA03F3FB603B681B888B
:10045C001A46FB6813403B613A69FB689A4227D104
:10046C00BB699B00FB600F22FB6802FA03F3BB60C5
:10047C00BB68DB437A6913407B61FA69FB6802FA5B
:10048C0003F37A6913437B613B68DB78282B05D136
:10049C00BB69083301229A407B685A613B68DB7860
:1004AC00482B05D1BB69083301229A407B681A613D
:1004BC00BB690133BB61BB69072BC1D97B687A6906
:1004CC005A6000BF2437BD4680BC704780B483B0EF
:1004DC0000AF78600B467B807A887B681A6100BF1E
:1004EC000C37BD4680BC704780B483B000AF7860D9
:1004FC000B467B807A887B685A6100BF0C37BD46FF
:10050C0080BC704780B483B000AF78600B46FB7042
:10051C00FB78002B06D0094B9A6908497B6813437A
:10052C008B6106E0054B9A697B68DB4303491340FA
:10053C008B6100BF0C37BD4680BC70470010024079
:10054C00DFF830D0FFF74CFE0B480C490C4A8842C0
:10055C0004D052F8043B40F8043BF8E709480A4938
:10056C004FF00002884202D040F8042BFAE7FFF764
:10057C0005FEFEE7005000200000002000000020D7
:10058C00A40500080000002000000020FEE7000089
:04059C00F8B500BFEF
:0405A000F8B500BFEB
:040000050800054D9D
:00000001FF
