:020000040800F2
:1000000000500020090700084D03000859030008AC
:100010006103000869030008710300080000000084
:10002000000000000000000000000000790300084C
:100030008503000800000000910300089D030008EC
:100040005107000851070008510700085107000830
:100050005107000851070008510700085107000820
:100060005107000851070008510700085107000810
:100070005107000851070008510700085107000800
:1000800051070008510700085107000851070008F0
:1000900051070008510700085107000851070008E0
:1000A00051070008510700085107000851070008D0
:1000B00051070008510700085107000851070008C0
:1000C00051070008510700085107000851070008B0
:1000D00051070008510700085107000851070008A0
:1000E0005107000851070008510700085107000890
:1000F0005107000851070008510700085107000880
:10010000510700085107000851070008510700086F
:10011000510700085107000851070008510700085F
:10012000510700085107000851070008510700084F
:1001300000000000000000000000000000000000BF
:1001400000000000000000000000000000000000AF
:10015000000000000000000000000000000000009F
:10016000000000000000000000000000000000008F
:10017000000000000000000000000000000000007F
:10018000000000000000000000000000000000006F
:10019000000000000000000000000000000000005F
:1001A000000000000000000000000000000000004F
:1001B000000000000000000000000000000000003F
:1001C000000000000000000000000000000000002F
:1001D000000000000000000000000000000000001F
:0401E0005FF8E0F1F3
:1001E4000348044B834202D0034B03B118477047C2
:1001F4000400002004000020000000000548064B15
:100204001B1AD90F01EBA301491002D0034B03B110
:10021400184770470400002004000020000000007C
:1002240010B5064C237843B9FFF7DAFF044B13B13A
:100234000448AFF300800123237010BD04000020A4
:10024400000000005407000808B5044B1BB1044922
:100254000448AFF30080BDE80840CFE70000000089
:10026400080000205407000870B50F4B0F4DAB4237
:10027400A3EB050607D00024B61055F8043B01345F
:100284009847A642F9D800F063FA094D094B5E1B62
:10029400AB424FEAA60606D0002455F8043B0134CD
:1002A4009847A642F9D870BD6C0700086C0700088F
:1002B4006C0700087007000880B582B000AF00F03A
:1002C40029F84FF40051104800F0F0F900237B6046
:1002D40002E07B6801337B607B680C4A9342F8DD63
:1002E4004FF40051084800F0D3F900233B6002E0CA
:1002F4003B6801333B603B68044A9342F8DD044B9E
:1003040063221A60DDE700BF001001401FA107004F
:100314000000002080B582B000AF0121102000F061
:10032400D3F94FF40053BB800323BB711023FB713B
:100334003B1D1946034800F0EFF800BF0837BD46DF
:1003440080BD00BF0010014080B400AF00BFBD46B7
:1003540080BC704780B400AF00BFFDE780B400AF3D
:1003640000BFFDE780B400AF00BFFDE780B400AF7D
:1003740000BFFDE780B400AF00BFBD4680BC70473E
:1003840080B400AF00BFBD4680BC704780B400AFEE
:1003940000BFBD4680BC704780B400AF00BFBD46FF
:1003A40080BC704780B500AF154B1B68144A43F0FE
:1003B40001031360124B5A681149124B13404B60EE
:1003C4000F4B1B680E4A23F0847323F480331360AD
:1003D4000B4B1B680A4A23F480231360084B5B68A9
:1003E400074A23F4FE035360054B4FF41F029A603F
:1003F40000F00CF8044B4FF000629A6000BF80BD1F
:10040400001002400000FFF800ED00E080B500AFEE
:1004140000F002F800BF80BD80B483B000AF0023B9
:100424007B6000233B603A4B1B68394A43F48033BA
:100434001360374B1B6803F400333B607B68013364
:100444007B603B68002B03D17B68B3F5A06FF0D1D0
:100454002F4B1B6803F40033002B02D001233B60B5
:1004640001E000233B603B68012B4BD1294B1B6807
:10047400284A43F010031360264B1B68254A23F0D7
:1004840003031360234B1B68224A43F002031360E7
:100494001F4B1F4A5B6853601D4B1D4A5B685360CA
:1004A4001B4B5B681A4A43F480635360184B5B68C8
:1004B400174A23F47C135360154B5B68144A43F4C6
:1004C400E8135360124B1B68114A43F080731360A6
:1004D40000BF0F4B1B6803F00073002BF9D00C4BCB
:1004E4005B680B4A23F003035360094B5B68084ABB
:1004F40043F00203536000BF054B5B6803F00C0339
:10050400082BF9D100BF0C37BD4680BC704700BF33
:10051400001002400020024080B489B000AF78602F
:1005240039600023FB6100233B610023BB6100238E
:10053400FB6000237B610023BB603B68DB7803F036
:100544000F03FB613B68DB7803F01003002B05D03D
:100554003B689B781A46FB691343FB613B681B8825
:10056400DBB2002B44D07B681B687B610023BB613A
:1005740038E00122BB6902FA03F3FB603B681B8885
:100584001A46FB6813403B613A69FB689A4226D1DC
:10059400BB699B00FB600F22FB6802FA03F3BB609C
:1005A400BB68DB437A6913407B61FA69FB6802FA32
:1005B40003F37A6913437B613B68DB78282B05D10D
:1005C4000122BB699A407B685A6108E03B68DB788A
:1005D400482B04D10122BB699A407B681A61BB692C
:1005E4000133BB61BB69072BC3D97B687A691A6085
:1005F4003B681B88FF2B46D97B685B687B610023C3
:10060400BB613AE0BB690833012202FA03F3FB60E1
:100614003B681B881A46FB6813403B613A69FB68D8
:100624009A4227D1BB699B00FB600F22FB6802FA48
:1006340003F3BB60BB68DB437A6913407B61FA69EF
:10064400FB6802FA03F37A6913437B613B68DB7846
:10065400282B05D1BB69083301229A407B685A6173
:100664003B68DB78482B05D1BB69083301229A40EB
:100674007B681A61BB690133BB61BB69072BC1D9B4
:100684007B687A695A6000BF2437BD4680BC7047D6
:1006940080B483B000AF78600B467B807A887B6837
:1006A4001A6100BF0C37BD4680BC704780B483B06C
:1006B40000AF78600B467B807A887B685A6100BF04
:1006C4000C37BD4680BC704780B483B000AF7860FF
:1006D4000B46FB70FB78002B06D0094B9A6908493E
:1006E4007B6813438B6106E0054B9A697B68DB43A7
:1006F400034913408B6100BF0C37BD4680BC704773
:1007040000100240002103E00B4B5B5843500431BE
:100714000A480B4B42189A42F6D30A4A02E00023D5
:1007240042F8043B084B9A42F9D3FFF73BFEFFF72C
:100734009BFDFFF7C1FD704774070008000000200F
:10074400040000200400002020000020FEE7000038
:10075400F8B500BFF8BC08BC9E467047F8B500BFAA
:08076400F8BC08BC9E4670477A
:04076C004D02000832
:040770002502000856
:04077400640000001D
:0400000508000709DF
:00000001FF
